{
  "contractName": "FirstContract",
  "abi": [
    {
      "inputs": [],
      "stateMutability": "nonpayable",
      "type": "constructor"
    },
    {
      "inputs": [],
      "name": "owner",
      "outputs": [
        {
          "internalType": "address",
          "name": "",
          "type": "address"
        }
      ],
      "stateMutability": "view",
      "type": "function"
    },
    {
      "inputs": [],
      "name": "getContract",
      "outputs": [
        {
          "internalType": "address",
          "name": "",
          "type": "address"
        }
      ],
      "stateMutability": "view",
      "type": "function"
    },
    {
      "inputs": [],
      "name": "getSender",
      "outputs": [
        {
          "internalType": "address",
          "name": "",
          "type": "address"
        }
      ],
      "stateMutability": "view",
      "type": "function"
    },
    {
      "inputs": [],
      "name": "functionOnlyOwnerCanCall",
      "outputs": [],
      "stateMutability": "nonpayable",
      "type": "function"
    }
  ],
  "bytecode": "0x608060405234801561001057600080fd5b50600080546001600160a01b0319163317905561011f806100326000396000f3fe6080604052348015600f57600080fd5b506004361060465760003560e01c80633871cf0b14604b5780635e01eb5a1460535780638da5cb5b146071578063958f85bd146083575b600080fd5b60516093565b005b335b6040516001600160a01b03909116815260200160405180910390f35b6000546055906001600160a01b031681565b6000546001600160a01b03166055565b6000546001600160a01b0316331460e75760405162461bcd60e51b815260206004820152601460248201527353656e646572206973206e6f74206f776e65722160601b604482015260640160405180910390fd5b56fea2646970667358221220fb38fd204768cd01e4c045fc678e406501fd3a1453c161526897282390bb1b2d64736f6c63430008130033",
  "immutableReferences": {},
  "source": "// SPDX-License-Identifier: MIT\r\npragma solidity 0.8.19;\r\n\r\nimport \"@openzeppelin/contracts/utils/Strings.sol\";\r\n\r\ncontract FirstContract{\r\n\r\n    address public owner;\r\n            \r\n    constructor(){\r\n      owner = msg.sender;\r\n    }\r\n    \r\n    modifier _onlyOwner(){\r\n      require(msg.sender == owner, \"Sender is not owner!\");\r\n      _;\r\n    }\r\n\r\n    function getContract() public view returns(address) {\r\n            return owner;\r\n    }\r\n\r\n    function getSender() public view returns(address) {\r\n            return msg.sender;\r\n    }\r\n\r\n    function functionOnlyOwnerCanCall() public _onlyOwner {    \r\n    }\r\n}",
  "sourcePath": "C:\\Users\\edubarbosa\\Desktop\\Curso web3\\curso-web3\\contracts\\FirstContract.sol",
  "compiler": {
    "name": "solc",
    "version": "0.8.19+commit.7dd6d404.Emscripten.clang"
  },
  "schemaVersion": "3.4.13",
  "updatedAt": "2023-03-17T19:42:32.552Z",
  "devdoc": {
    "kind": "dev",
    "methods": {},
    "version": 1
  },
  "userdoc": {
    "kind": "user",
    "methods": {},
    "version": 1
  }
}