{
  "contractName": "FirstContract",
  "abi": [
    {
      "inputs": [],
      "stateMutability": "nonpayable",
      "type": "constructor"
    },
    {
      "inputs": [],
      "name": "owner",
      "outputs": [
        {
          "internalType": "address",
          "name": "",
          "type": "address"
        }
      ],
      "stateMutability": "view",
      "type": "function"
    },
    {
      "inputs": [],
      "name": "getContract",
      "outputs": [
        {
          "internalType": "address",
          "name": "",
          "type": "address"
        }
      ],
      "stateMutability": "view",
      "type": "function"
    },
    {
      "inputs": [],
      "name": "functionOnlyOwnerCanCall",
      "outputs": [],
      "stateMutability": "nonpayable",
      "type": "function"
    }
  ],
  "bytecode": "0x608060405234801561001057600080fd5b50600080546001600160a01b03191633179055610113806100326000396000f3fe6080604052348015600f57600080fd5b5060043610603c5760003560e01c80633871cf0b1460415780638da5cb5b146049578063958f85bd146077575b600080fd5b60476087565b005b600054605b906001600160a01b031681565b6040516001600160a01b03909116815260200160405180910390f35b6000546001600160a01b0316605b565b6000546001600160a01b0316331460db5760405162461bcd60e51b815260206004820152601460248201527353656e646572206973206e6f74206f776e65722160601b604482015260640160405180910390fd5b56fea2646970667358221220b56e48a3b01272f0fb1c9e742f4757a6814138d46fdb3bcc46d6f9f1949572d664736f6c63430008130033",
  "immutableReferences": {},
  "source": "// SPDX-License-Identifier: MIT\r\npragma solidity 0.8.19;\r\n\r\nimport \"@openzeppelin/contracts/utils/Strings.sol\";\r\n\r\ncontract FirstContract{\r\n\r\n    address public owner;\r\n            \r\n    constructor(){\r\n      owner = msg.sender;\r\n    }\r\n    \r\n    modifier _ownerOnly(){\r\n      require(msg.sender == owner, \"Sender is not owner!\");\r\n      _;\r\n    }\r\n\r\n    function getContract() public view returns(address) {\r\n            return owner;\r\n    }\r\n\r\n    function functionOnlyOwnerCanCall() public _ownerOnly {    \r\n    }\r\n\r\n    /*function changePrice (uint newPrice) public _ownerOnly returns (string memory message) {\r\n        price = newPrice;\r\n        message = string.concat(\"Novo preco alterado: \", Strings.toString(price));\r\n        return message;\r\n    }*/\r\n}",
  "sourcePath": "C:\\Users\\edubarbosa\\Desktop\\Curso web3\\curso-web3\\contracts\\FirstContract.sol",
  "compiler": {
    "name": "solc",
    "version": "0.8.19+commit.7dd6d404.Emscripten.clang"
  },
  "schemaVersion": "3.4.13",
  "updatedAt": "2023-03-17T15:15:35.903Z",
  "devdoc": {
    "kind": "dev",
    "methods": {},
    "version": 1
  },
  "userdoc": {
    "kind": "user",
    "methods": {},
    "version": 1
  }
}