{
  "contractName": "FirstContract",
  "abi": [
    {
      "inputs": [],
      "stateMutability": "nonpayable",
      "type": "constructor"
    },
    {
      "inputs": [],
      "name": "owner",
      "outputs": [
        {
          "internalType": "address",
          "name": "",
          "type": "address"
        }
      ],
      "stateMutability": "view",
      "type": "function"
    },
    {
      "inputs": [
        {
          "internalType": "uint256",
          "name": "newPrice",
          "type": "uint256"
        }
      ],
      "name": "changePrice",
      "outputs": [
        {
          "internalType": "string",
          "name": "message",
          "type": "string"
        }
      ],
      "stateMutability": "nonpayable",
      "type": "function"
    }
  ],
  "bytecode": "0x6080604052600a60005534801561001557600080fd5b50600180546001600160a01b0319163317905561037c806100376000396000f3fe608060405234801561001057600080fd5b50600436106100365760003560e01c80638da5cb5b1461003b578063a2b40d191461006b575b600080fd5b60015461004e906001600160a01b031681565b6040516001600160a01b0390911681526020015b60405180910390f35b61007e610079366004610283565b61008b565b60405161006291906102c0565b6001546060906001600160a01b031633146100e35760405162461bcd60e51b815260206004820152601460248201527353656e646572206973206e6f74206f776e65722160601b604482015260640160405180910390fd5b60008290556100f182610117565b60405160200161010191906102f3565b6040516020818303038152906040529050919050565b60606000610124836101aa565b600101905060008167ffffffffffffffff81111561014457610144610330565b6040519080825280601f01601f19166020018201604052801561016e576020820181803683370190505b5090508181016020015b600019016f181899199a1a9b1b9c1cb0b131b232b360811b600a86061a8153600a850494508461017857509392505050565b60008072184f03e93ff9f4daa797ed6e38ed64bf6a1f0160401b83106101e95772184f03e93ff9f4daa797ed6e38ed64bf6a1f0160401b830492506040015b6d04ee2d6d415b85acef81000000008310610215576d04ee2d6d415b85acef8100000000830492506020015b662386f26fc10000831061023357662386f26fc10000830492506010015b6305f5e100831061024b576305f5e100830492506008015b612710831061025f57612710830492506004015b60648310610271576064830492506002015b600a831061027d576001015b92915050565b60006020828403121561029557600080fd5b5035919050565b60005b838110156102b757818101518382015260200161029f565b50506000910152565b60208152600082518060208401526102df81604085016020870161029c565b601f01601f19169190910160400192915050565b7402737bb3790383932b1b79030b63a32b930b2379d1605d1b81526000825161032381601585016020870161029c565b9190910160150192915050565b634e487b7160e01b600052604160045260246000fdfea2646970667358221220b87319821ac3f2cf4ce7b1de56f16390da7cef6fc9dccbf1040d66fe816f535364736f6c63430008130033",
  "immutableReferences": {},
  "source": "// SPDX-License-Identifier: MIT\r\npragma solidity 0.8.19;\r\n\r\nimport \"@openzeppelin/contracts/utils/Strings.sol\";\r\n\r\ncontract FirstContract{\r\n\r\n    uint price = 10;\r\n    address public owner;\r\n\r\n      constructor(){\r\n      owner = msg.sender;\r\n}   \r\n      modifier _ownerOnly(){\r\n      require(msg.sender == owner , \"Sender is not owner!\");\r\n      _;\r\n}\r\n\r\n    function changePrice (uint newPrice) public _ownerOnly returns (string memory message) {\r\n        price = newPrice;\r\n        message = string.concat(\"Novo preco alterado: \", Strings.toString(price));\r\n        return message;\r\n    }\r\n}",
  "sourcePath": "C:\\Users\\edubarbosa\\Desktop\\Curso web3\\curso-web3\\contracts\\FirstContract.sol",
  "compiler": {
    "name": "solc",
    "version": "0.8.19+commit.7dd6d404.Emscripten.clang"
  },
  "schemaVersion": "3.4.13",
  "updatedAt": "2023-03-14T14:53:56.268Z",
  "devdoc": {
    "kind": "dev",
    "methods": {},
    "version": 1
  },
  "userdoc": {
    "kind": "user",
    "methods": {},
    "version": 1
  }
}