{
  "contractName": "HelloWorld",
  "abi": [
    {
      "inputs": [
        {
          "internalType": "string",
          "name": "newMessage",
          "type": "string"
        }
      ],
      "stateMutability": "nonpayable",
      "type": "constructor"
    },
    {
      "inputs": [],
      "name": "message",
      "outputs": [
        {
          "internalType": "string",
          "name": "",
          "type": "string"
        }
      ],
      "stateMutability": "view",
      "type": "function"
    }
  ],
  "bytecode": "0x60c0604052600e60809081526d48656c6c6f20576f726c6421212160901b60a05260009061002d908261010b565b5034801561003a57600080fd5b5060405161043c38038061043c833981016040819052610059916101ca565b6000610065828261010b565b5050610293565b634e487b7160e01b600052604160045260246000fd5b600181811c9082168061009657607f821691505b6020821081036100b657634e487b7160e01b600052602260045260246000fd5b50919050565b601f82111561010657600081815260208120601f850160051c810160208610156100e35750805b601f850160051c820191505b81811015610102578281556001016100ef565b5050505b505050565b81516001600160401b038111156101245761012461006c565b610138816101328454610082565b846100bc565b602080601f83116001811461016d57600084156101555750858301515b600019600386901b1c1916600185901b178555610102565b600085815260208120601f198616915b8281101561019c5788860151825594840194600190910190840161017d565b50858210156101ba5787850151600019600388901b60f8161c191681555b5050505050600190811b01905550565b600060208083850312156101dd57600080fd5b82516001600160401b03808211156101f457600080fd5b818501915085601f83011261020857600080fd5b81518181111561021a5761021a61006c565b604051601f8201601f19908116603f011681019083821181831017156102425761024261006c565b81604052828152888684870101111561025a57600080fd5b600093505b8284101561027c578484018601518185018701529285019261025f565b600086848301015280965050505050505092915050565b61019a806102a26000396000f3fe608060405234801561001057600080fd5b506004361061002b5760003560e01c8063e21f37ce14610030575b600080fd5b61003861004e565b60405161004591906100dc565b60405180910390f35b6000805461005b9061012a565b80601f01602080910402602001604051908101604052809291908181526020018280546100879061012a565b80156100d45780601f106100a9576101008083540402835291602001916100d4565b820191906000526020600020905b8154815290600101906020018083116100b757829003601f168201915b505050505081565b600060208083528351808285015260005b81811015610109578581018301518582016040015282016100ed565b506000604082860101526040601f19601f8301168501019250505092915050565b600181811c9082168061013e57607f821691505b60208210810361015e57634e487b7160e01b600052602260045260246000fd5b5091905056fea264697066735822122098f7c768d798d19141b6b37d28b645c25c37e40ebba8b18c9f3ad8d56831b79564736f6c63430008130033",
  "immutableReferences": {},
  "source": "/// @title A title that should describe the contract/interface\r\n/// @Eduardo Barbosa The name of the author\r\n/// @notice Explain to an end user what this does\r\n/// @dev Explain to a developer any extra details\r\n\r\n// SPDX-License-Identifier: MIT\r\npragma solidity 0.8.19;\r\n\r\ncontract HelloWorld{\r\n    string public message = \"Hello World!!!\";\r\n\r\n    constructor(string memory newMessage){\r\n        message = newMessage;\r\n    }\r\n}",
  "sourcePath": "C:\\Users\\edubarbosa\\Desktop\\Curso web3\\curso-web3\\contracts\\HelloWorld.sol",
  "compiler": {
    "name": "solc",
    "version": "0.8.19+commit.7dd6d404.Emscripten.clang"
  },
  "schemaVersion": "3.4.13",
  "updatedAt": "2023-03-17T19:42:32.559Z",
  "devdoc": {
    "kind": "dev",
    "methods": {},
    "version": 1
  },
  "userdoc": {
    "kind": "user",
    "methods": {},
    "version": 1
  }
}